{
  "abi": [
    {
      "inputs": [],
      "name": "increment",
      "outputs": [],
      "stateMutability": "nonpayable",
      "type": "function"
    },
    {
      "inputs": [],
      "name": "number",
      "outputs": [
        {
          "internalType": "uint256",
          "name": "",
          "type": "uint256"
        }
      ],
      "stateMutability": "view",
      "type": "function"
    },
    {
      "inputs": [
        {
          "internalType": "uint256",
          "name": "newNumber",
          "type": "uint256"
        }
      ],
      "name": "setNumber",
      "outputs": [],
      "stateMutability": "nonpayable",
      "type": "function"
    }
  ],
  "bytecode": {
    "object": "0x608060405234801561001057600080fd5b506101f5806100206000396000f3fe608060405234801561001057600080fd5b50600436106100415760003560e01c80633fb5c1cb146100465780638381f58a1461005b578063d09de08a14610076575b600080fd5b610059610054366004610131565b61007e565b005b61006460005481565b60405190815260200160405180910390f35b6100596100b4565b6100af6040518060400160405280601081526020016f1cd95d139d5b58995c8818d85b1b195960821b8152506100ca565b600055565b6000805490806100c38361014a565b9190505550565b61010d816040516024016100de9190610171565b60408051601f198184030181529190526020810180516001600160e01b031663104c13eb60e21b179052610110565b50565b80516a636f6e736f6c652e6c6f67602083016000808483855afa5050505050565b60006020828403121561014357600080fd5b5035919050565b60006001820161016a57634e487b7160e01b600052601160045260246000fd5b5060010190565b600060208083528351808285015260005b8181101561019e57858101830151858201604001528201610182565b506000604082860101526040601f19601f830116850101925050509291505056fea2646970667358221220eea4c23576b5e5b99704a6602d2518858d70ead8eb0b20eff4e782ce2dd4a21564736f6c63430008140033",
    "linkReferences": {}
  },
  "methodIdentifiers": {
    "increment()": "d09de08a",
    "number()": "8381f58a",
    "setNumber(uint256)": "3fb5c1cb"
  },
  "id": 18
}